{
  "contractName": "StoreCustomers",
  "abi": [
    {
      "inputs": [],
      "name": "count",
      "outputs": [
        {
          "internalType": "uint32",
          "name": "",
          "type": "uint32"
        }
      ],
      "stateMutability": "view",
      "type": "function"
    },
    {
      "inputs": [
        {
          "internalType": "uint32",
          "name": "",
          "type": "uint32"
        }
      ],
      "name": "customers",
      "outputs": [
        {
          "internalType": "string",
          "name": "name",
          "type": "string"
        },
        {
          "internalType": "uint8",
          "name": "age",
          "type": "uint8"
        }
      ],
      "stateMutability": "view",
      "type": "function"
    },
    {
      "inputs": [
        {
          "components": [
            {
              "internalType": "string",
              "name": "name",
              "type": "string"
            },
            {
              "internalType": "uint8",
              "name": "age",
              "type": "uint8"
            }
          ],
          "internalType": "struct StoreCustomers.Customer",
          "name": "newCustomer",
          "type": "tuple"
        }
      ],
      "name": "addCustomer",
      "outputs": [],
      "stateMutability": "nonpayable",
      "type": "function"
    },
    {
      "inputs": [
        {
          "internalType": "uint32",
          "name": "id",
          "type": "uint32"
        }
      ],
      "name": "getCustomer",
      "outputs": [
        {
          "components": [
            {
              "internalType": "string",
              "name": "name",
              "type": "string"
            },
            {
              "internalType": "uint8",
              "name": "age",
              "type": "uint8"
            }
          ],
          "internalType": "struct StoreCustomers.Customer",
          "name": "",
          "type": "tuple"
        }
      ],
      "stateMutability": "view",
      "type": "function"
    },
    {
      "inputs": [
        {
          "internalType": "uint32",
          "name": "id",
          "type": "uint32"
        },
        {
          "components": [
            {
              "internalType": "string",
              "name": "name",
              "type": "string"
            },
            {
              "internalType": "uint8",
              "name": "age",
              "type": "uint8"
            }
          ],
          "internalType": "struct StoreCustomers.Customer",
          "name": "newCustumer",
          "type": "tuple"
        }
      ],
      "name": "editCustomer",
      "outputs": [],
      "stateMutability": "nonpayable",
      "type": "function"
    },
    {
      "inputs": [
        {
          "internalType": "uint32",
          "name": "id",
          "type": "uint32"
        }
      ],
      "name": "removeCustomer",
      "outputs": [],
      "stateMutability": "nonpayable",
      "type": "function"
    }
  ],
  "bytecode": "0x6080604052600080546001600160401b031916905534801561002057600080fd5b50610aba806100306000396000f3fe608060405234801561001057600080fd5b50600436106100625760003560e01c806306661abd146100675780630fdd0cde1461009957806334347690146100ae57806385ec526d146100c1578063cf7a4639146100e1578063d39e50e1146100f4575b600080fd5b60005461007f90640100000000900463ffffffff1681565b60405163ffffffff90911681526020015b60405180910390f35b6100ac6100a7366004610795565b610115565b005b6100ac6100bc3660046107e3565b610275565b6100d46100cf3660046107e3565b6103ac565b604051610090919061084b565b6100ac6100ef366004610880565b610486565b6101076101023660046107e3565b610515565b6040516100909291906108bd565b63ffffffff82166000908152600160205260408082208151808301909252805482908290610142906108e2565b80601f016020809104026020016040519081016040528092919081815260200182805461016e906108e2565b80156101bb5780601f10610190576101008083540402835291602001916101bb565b820191906000526020600020905b81548152906001019060200180831161019e57829003601f168201915b50505091835250506001919091015460ff90811660209283015290820151919250166000036101e957505050565b816020015160ff16816020015160ff161461020c5760208083015160ff16908201525b805182518051602091820120825191909201201460011461022c57815181525b63ffffffff8316600090815260016020526040902081518291908190610252908261096b565b50602091909101516001909101805460ff191660ff909216919091179055505050565b63ffffffff811660009081526001602052604080822081518083019092528054829082906102a2906108e2565b80601f01602080910402602001604051908101604052809291908181526020018280546102ce906108e2565b801561031b5780601f106102f05761010080835404028352916020019161031b565b820191906000526020600020905b8154815290600101906020018083116102fe57829003601f168201915b50505091835250506001919091015460ff16602090910152805151909150156103a85763ffffffff821660009081526001602052604081209061035e82826105f5565b50600101805460ff1916905560008054640100000000900463ffffffff1690600461038883610a41565b91906101000a81548163ffffffff021916908363ffffffff160217905550505b5050565b60408051808201909152606081526000602082015263ffffffff82166000908152600160205260409081902081518083019092528054829082906103ef906108e2565b80601f016020809104026020016040519081016040528092919081815260200182805461041b906108e2565b80156104685780601f1061043d57610100808354040283529160200191610468565b820191906000526020600020905b81548152906001019060200180831161044b57829003601f168201915b50505091835250506001919091015460ff1660209091015292915050565b80600160006104936105bc565b63ffffffff1681526020810191909152604001600020815181906104b7908261096b565b50602091909101516001909101805460ff191660ff90921691909117905560008054640100000000900463ffffffff169060046104f383610a61565b91906101000a81548163ffffffff021916908363ffffffff1602179055505050565b600160205260009081526040902080548190610530906108e2565b80601f016020809104026020016040519081016040528092919081815260200182805461055c906108e2565b80156105a95780601f1061057e576101008083540402835291602001916105a9565b820191906000526020600020905b81548152906001019060200180831161058c57829003601f168201915b5050506001909301549192505060ff1682565b60008054819081906105d39063ffffffff16610a61565b91906101000a81548163ffffffff021916908363ffffffff1602179055905090565b508054610601906108e2565b6000825580601f10610611575050565b601f01602090049060005260206000209081019061062f9190610632565b50565b5b808211156106475760008155600101610633565b5090565b803563ffffffff8116811461065f57600080fd5b919050565b634e487b7160e01b600052604160045260246000fd5b6040805190810167ffffffffffffffff8111828210171561069d5761069d610664565b60405290565b604051601f8201601f1916810167ffffffffffffffff811182821017156106cc576106cc610664565b604052919050565b803560ff8116811461065f57600080fd5b6000604082840312156106f757600080fd5b6106ff61067a565b9050813567ffffffffffffffff8082111561071957600080fd5b818401915084601f83011261072d57600080fd5b813560208282111561074157610741610664565b610753601f8301601f191682016106a3565b9250818352868183860101111561076957600080fd5b818185018285013760008183850101528285526107878187016106d4565b818601525050505092915050565b600080604083850312156107a857600080fd5b6107b18361064b565b9150602083013567ffffffffffffffff8111156107cd57600080fd5b6107d9858286016106e5565b9150509250929050565b6000602082840312156107f557600080fd5b6107fe8261064b565b9392505050565b6000815180845260005b8181101561082b5760208185018101518683018201520161080f565b506000602082860101526020601f19601f83011685010191505092915050565b6020815260008251604060208401526108676060840182610805565b905060ff60208501511660408401528091505092915050565b60006020828403121561089257600080fd5b813567ffffffffffffffff8111156108a957600080fd5b6108b5848285016106e5565b949350505050565b6040815260006108d06040830185610805565b905060ff831660208301529392505050565b600181811c908216806108f657607f821691505b60208210810361091657634e487b7160e01b600052602260045260246000fd5b50919050565b601f82111561096657600081815260208120601f850160051c810160208610156109435750805b601f850160051c820191505b818110156109625782815560010161094f565b5050505b505050565b815167ffffffffffffffff81111561098557610985610664565b6109998161099384546108e2565b8461091c565b602080601f8311600181146109ce57600084156109b65750858301515b600019600386901b1c1916600185901b178555610962565b600085815260208120601f198616915b828110156109fd578886015182559484019460019091019084016109de565b5085821015610a1b5787850151600019600388901b60f8161c191681555b5050505050600190811b01905550565b634e487b7160e01b600052601160045260246000fd5b600063ffffffff821680610a5757610a57610a2b565b6000190192915050565b600063ffffffff808316818103610a7a57610a7a610a2b565b600101939250505056fea26469706673582212204e695fac1d1962e992189836f3c5baf9a33145448476aaf1fd3247e5ad53736c64736f6c63430008110033",
  "immutableReferences": {},
  "source": "// SPDX-License-Identifier: MIT\r\npragma solidity ^0.8.0;\r\n\r\ncontract StoreCustomers {\r\n\r\n    struct Customer {\r\n        string name;\r\n        uint8 age;\r\n    }\r\n\r\n    uint32 private nextId = 0;\r\n    uint32 public count = 0;\r\n\r\n    function getNewId() private returns(uint32){\r\n        return ++nextId;\r\n    }\r\n\r\n    mapping(uint32 => Customer) public customers;\r\n\r\n    function addCustomer(Customer memory newCustomer) public {\r\n        customers[getNewId()] = newCustomer;\r\n        count ++;\r\n    }\r\n\r\n    function getCustomer(uint32 id) public view returns(Customer memory){\r\n        return customers[id];\r\n    }\r\n\r\n    function compareStrings(string memory a, string memory b) private pure returns(bool){\r\n        return keccak256(bytes(a)) == keccak256(bytes(b));\r\n    }\r\n\r\n    function editCustomer(uint32 id, Customer memory newCustumer) public {\r\n        Customer memory oldCustomer = customers[id];\r\n        if(oldCustomer.age == 0) return;\r\n\r\n        if(oldCustomer.age != newCustumer.age){\r\n            oldCustomer.age = newCustumer.age;\r\n        }\r\n        if(compareStrings(oldCustomer.name, newCustumer.name) != true){\r\n            oldCustomer.name = newCustumer.name;\r\n        }\r\n        customers[id] = oldCustomer;\r\n    }\r\n\r\n    function removeCustomer(uint32 id) public {\r\n        Customer memory oldCustomer = customers[id];\r\n        if(bytes(oldCustomer.name).length > 0){\r\n            delete customers[id];\r\n            count --;\r\n        }\r\n    }\r\n\r\n/*\r\n    string public message = \"NFT\";\r\n    function setMessage(string memory newMessage) public{\r\n        message = newMessage;\r\n    }\r\n*/\r\n}",
  "sourcePath": "C:\\Users\\heron\\Documents\\dev\\crud-solidity\\contracts\\StoreCustomers.sol",
  "compiler": {
    "name": "solc",
    "version": "0.8.17+commit.8df45f5f.Emscripten.clang"
  },
  "schemaVersion": "3.4.10",
  "updatedAt": "2022-09-20T17:34:54.468Z",
  "devdoc": {
    "kind": "dev",
    "methods": {},
    "version": 1
  },
  "userdoc": {
    "kind": "user",
    "methods": {},
    "version": 1
  }
}